:100000000C9434000C9449000C9449000C94490061
:100010000C9449000C9449000C9449000C9449003C
:100020000C9449000C9449000C9449000C94B600BF
:100030000C9449000C9449000C9449000C9449001C
:100040000C9449000C9449000C9449000C9449000C
:100050000C9449000C9449000C9449000C944900FC
:100060000C9449000C94490011241FBECFEFD8E036
:10007000DEBFCDBF11E0A0E0B1E0E8E8F3E002C0F0
:1000800005900D92AE30B107D9F70E944B000C9449
:10009000C2010C940000559A569A239AE7E0F1E0C9
:1000A000808187BD828188BD84818093B30084B5BF
:1000B000806884BD84B5806284BDE0EBF0E080811F
:1000C0008068808384B5836084BD85B5826085BD8A
:1000D00080818360808385B5826085BDE1EBF0E03F
:1000E0008081826080838FEF94E090938900809379
:1000F0008800E1E8F0E0808188608083AFE6B0E0CE
:100100008C9182608C93808185608083789407E0F5
:1001100011E00F2EF3EBEF2EF12CF02DC12CD12C92
:10012000F801808187BD828188BD8481F701808349
:10013000F801808190E00E945401CC2DDD2DFE015C
:10014000EC5FFE4F8081882361F00E944F01FE0129
:10015000EE0FFF1FE95FFE4F8183FE01EC5FFE4F54
:1001600010822196C330D10551F7DACF1F920F923A
:100170000FB60F9211242F933F934F938F939F931A
:10018000EF93FF9380E090E041E0FC01EC5FFE4FD5
:100190002081211128C0FC01EE0FFF1FE95FFE4FF7
:1001A00031812081321305C0FC01EC5FFE4F40839A
:1001B0001AC0FC01EE0FFF1FE95FFE4F3181208165
:1001C000231748F4FC01EE0FFF1FE95FFE4F20816B
:1001D0002F5F208308C0FC01EE0FFF1FE95FFE4F79
:1001E00020812150208301968330910571F6FF9183
:1001F000EF919F918F914F913F912F910F900FBE53
:100200000F901F9018958F929F92AF92BF92CF92AE
:10021000DF92EF92FF92CF93DF93EC0168817981B7
:100220008A819B81611571058105910521F464E244
:1002300079ED8BE597E02DE133EF41E050E00E944E
:100240005F0149015A019B01AC01A7EAB1E40E9498
:100250007E016B017C01ACEEB4EFA50194010E941C
:100260008C01DC01CB018C0D9D1DAE1DBF1DB7FFA8
:1002700003C00197A109B04888839983AA83BB83EF
:100280009F77DF91CF91FF90EF90DF90CF90BF905D
:10029000AF909F908F9008950E940301089580E091
:1002A00091E00E9403010895A0E0B0E08093000176
:1002B00090930101A0930201B09303010895052ECC
:1002C00097FB1EF400940E94760157FD07D00E9410
:1002D000910107FC03D04EF40C94760150954095A3
:1002E000309521953F4F4F4F5F4F089590958095E2
:1002F000709561957F4F8F4F9F4F08950E94B30176
:10030000A59F900DB49F900DA49F800D911D112469
:100310000895B7FF0C947E010E947E01821B930B0F
:100320000895A1E21A2EAA1BBB1BFD010DC0AA1F36
:10033000BB1FEE1FFF1FA217B307E407F50720F04E
:10034000A21BB30BE40BF50B661F771F881F991FC9
:100350001A9469F760957095809590959B01AC0112
:10036000BD01CF010895A29FB001B39FC001A39F1B
:10037000700D811D1124911DB29F700D811D1124DE
:08038000911D0895F894FFCFD0
:0E03880001000000010001FF00FF00FF000067
:00000001FF
