:100000000C9434000C9451000C9451000C94510049
:100010000C9451000C9451000C9451000C9451001C
:100020000C9451000C9451000C9451000C94BF009E
:100030000C9451000C9451000C9451000C945100FC
:100040000C9451000C9451000C9451000C945100EC
:100050000C9451000C9451000C9451000C945100DC
:100060000C9451000C94510011241FBECFEFD8E026
:10007000DEBFCDBF11E0A0E0B1E0EAE9F3E002C0ED
:1000800005900D92AA30B107D9F721E0AAE0B1E0BE
:1000900001C01D92AD30B207E1F70E9453000C94ED
:1000A000CB010C940000559A569A239AE4E0F1E0B3
:1000B000808187BD828188BD84818093B30084B5AF
:1000C000806884BD84B5806284BDE0EBF0E080810F
:1000D0008068808384B5836084BD85B5826085BD7A
:1000E00080818360808385B5826085BDE1EBF0E02F
:1000F0008081826080838FEF94E090938900809369
:100100008800E1E8F0E0808188608083AFE6B0E0BD
:100110008C9182608C93808185608083789404E0E8
:1001200011E00F2EF3EBEF2EF12CF02DC12CD12C82
:10013000F801808187BD828188BD8481F701808339
:10014000F801808190E00E945D01CC2DDD2DFE0143
:10015000E65FFE4F8081882369F00E9458018095F8
:10016000FE01EE0FFF1FEC5FFE4F8183FE01E65F95
:10017000FE4F10822196C330D10549F7D9CF1F9287
:100180000F920FB60F9211242F933F934F938F939B
:100190009F93EF93FF9380E090E041E0FC01E65FE6
:1001A000FE4F2081211128C0FC01EE0FFF1FEC5FE4
:1001B000FE4F31812081321305C0FC01E65FFE4F06
:1001C00040831AC0FC01EE0FFF1FEC5FFE4F318130
:1001D0002081231748F4FC01EE0FFF1FEC5FFE4F58
:1001E00020812F5F208308C0FC01EE0FFF1FEC5F12
:1001F000FE4F20812150208301968330910571F6B6
:10020000FF91EF919F918F914F913F912F910F907F
:100210000FBE0F901F9018958F929F92AF92BF9232
:10022000CF92DF92EF92FF92CF93DF93EC01688140
:1002300079818A819B81611571058105910521F480
:1002400064E279ED8BE597E02DE133EF41E050E09A
:100250000E94680149015A019B01AC01A7EAB1E47F
:100260000E9487016B017C01ACEEB4EFA501940103
:100270000E949501DC01CB018C0D9D1DAE1DBF1DA3
:10028000B7FF03C00197A109B04888839983AA8367
:10029000BB839F77DF91CF91FF90EF90DF90CF905E
:1002A000BF90AF909F908F9008950E940C01089589
:1002B00080E091E00E940C010895A0E0B0E08093FE
:1002C000000190930101A0930201B09303010895EE
:1002D000052E97FB1EF400940E947F0157FD07D066
:1002E0000E949A0107FC03D04EF40C947F015095B4
:1002F0004095309521953F4F4F4F5F4F0895909512
:100300008095709561957F4F8F4F9F4F08950E9404
:10031000BC01A59F900DB49F900DA49F800D911DD1
:1003200011240895B7FF0C9487010E948701821B56
:10033000930B0895A1E21A2EAA1BBB1BFD010DC051
:10034000AA1FBB1FEE1FFF1FA217B307E407F50785
:1003500020F0A21BB30BE40BF50B661F771F881F61
:10036000991F1A9469F760957095809590959B01F7
:10037000AC01BD01CF010895A29FB001B39FC001A0
:10038000A39F700D811D1124911DB29F700D811DC1
:0A0390001124911D0895F894FFCF89
:0A039A000100000000FF00FF00FF5B
:00000001FF
